{
  "contractName": "SmartTaskDispatcher",
  "abi": [
    {
      "constant": false,
      "inputs": [
        {
          "name": "task_id",
          "type": "uint256"
        }
      ],
      "name": "acceptTask",
      "outputs": [],
      "payable": false,
      "stateMutability": "nonpayable",
      "type": "function"
    },
    {
      "constant": false,
      "inputs": [
        {
          "name": "task_id",
          "type": "uint256"
        }
      ],
      "name": "resolveTask",
      "outputs": [],
      "payable": false,
      "stateMutability": "nonpayable",
      "type": "function"
    },
    {
      "constant": false,
      "inputs": [
        {
          "name": "task_id",
          "type": "uint256"
        }
      ],
      "name": "rejectTask",
      "outputs": [],
      "payable": false,
      "stateMutability": "nonpayable",
      "type": "function"
    },
    {
      "constant": false,
      "inputs": [
        {
          "name": "task_id",
          "type": "uint256"
        }
      ],
      "name": "cancelTask",
      "outputs": [],
      "payable": false,
      "stateMutability": "nonpayable",
      "type": "function"
    },
    {
      "constant": true,
      "inputs": [
        {
          "name": "",
          "type": "uint256"
        }
      ],
      "name": "tasks",
      "outputs": [
        {
          "name": "id",
          "type": "uint256"
        },
        {
          "name": "bounty",
          "type": "uint256"
        },
        {
          "name": "owner",
          "type": "address"
        },
        {
          "name": "assignee",
          "type": "address"
        },
        {
          "name": "status",
          "type": "uint8"
        },
        {
          "name": "rejected_on",
          "type": "uint256"
        }
      ],
      "payable": false,
      "stateMutability": "view",
      "type": "function"
    },
    {
      "constant": true,
      "inputs": [],
      "name": "getTasksCount",
      "outputs": [
        {
          "name": "",
          "type": "uint256"
        }
      ],
      "payable": false,
      "stateMutability": "view",
      "type": "function"
    },
    {
      "constant": false,
      "inputs": [],
      "name": "createTask",
      "outputs": [
        {
          "name": "",
          "type": "bool"
        }
      ],
      "payable": true,
      "stateMutability": "payable",
      "type": "function"
    },
    {
      "constant": false,
      "inputs": [
        {
          "name": "task_id",
          "type": "uint256"
        }
      ],
      "name": "rollbackAssignment",
      "outputs": [],
      "payable": false,
      "stateMutability": "nonpayable",
      "type": "function"
    },
    {
      "constant": false,
      "inputs": [
        {
          "name": "task_id",
          "type": "uint256"
        }
      ],
      "name": "assignTask",
      "outputs": [],
      "payable": false,
      "stateMutability": "nonpayable",
      "type": "function"
    },
    {
      "inputs": [],
      "payable": false,
      "stateMutability": "nonpayable",
      "type": "constructor"
    }
  ],
  "bytecode": "0x6060604052341561000f57600080fd5b610b8f8061001e6000396000f300606060405260043610610099576000357c0100000000000000000000000000000000000000000000000000000000900463ffffffff1680631bf6912d1461009e578063456d908e146100c15780637d81b40b146100e45780637eec20a8146101075780638d9776721461012a5780639f899273146101ea578063a747649314610213578063b241ce0b14610235578063b857318514610258575b600080fd5b34156100a957600080fd5b6100bf600480803590602001909190505061027b565b005b34156100cc57600080fd5b6100e260048080359060200190919050506103be565b005b34156100ef57600080fd5b6101056004808035906020019091905050610499565b005b341561011257600080fd5b610128600480803590602001909190505061057d565b005b341561013557600080fd5b61014b600480803590602001909190505061069c565b604051808781526020018681526020018573ffffffffffffffffffffffffffffffffffffffff1673ffffffffffffffffffffffffffffffffffffffff1681526020018473ffffffffffffffffffffffffffffffffffffffff1673ffffffffffffffffffffffffffffffffffffffff1681526020018360048111156101cb57fe5b60ff168152602001828152602001965050505050505060405180910390f35b34156101f557600080fd5b6101fd610734565b6040518082815260200191505060405180910390f35b61021b610740565b604051808215151515815260200191505060405180910390f35b341561024057600080fd5b61025660048080359060200190919050506108b6565b005b341561026357600080fd5b61027960048080359060200190919050506109d5565b005b6000808281548110151561028b57fe5b90600052602060002090600502019050600260048111156102a857fe5b8160030160149054906101000a900460ff1660048111156102c557fe5b14801561032157503373ffffffffffffffffffffffffffffffffffffffff168160020160009054906101000a900473ffffffffffffffffffffffffffffffffffffffff1673ffffffffffffffffffffffffffffffffffffffff16145b151561032c57600080fd5b60038160030160146101000a81548160ff0219169083600481111561034d57fe5b02179055508060030160009054906101000a900473ffffffffffffffffffffffffffffffffffffffff1673ffffffffffffffffffffffffffffffffffffffff166108fc82600101549081150290604051600060405180830381858888f1935050505015156103ba57600080fd5b5050565b600080828154811015156103ce57fe5b90600052602060002090600502019050600160048111156103eb57fe5b8160030160149054906101000a900460ff16600481111561040857fe5b14801561046457503373ffffffffffffffffffffffffffffffffffffffff168160030160009054906101000a900473ffffffffffffffffffffffffffffffffffffffff1673ffffffffffffffffffffffffffffffffffffffff16145b151561046f57600080fd5b60028160030160146101000a81548160ff0219169083600481111561049057fe5b02179055505050565b600080828154811015156104a957fe5b90600052602060002090600502019050600260048111156104c657fe5b8160030160149054906101000a900460ff1660048111156104e357fe5b14801561053f57503373ffffffffffffffffffffffffffffffffffffffff168160020160009054906101000a900473ffffffffffffffffffffffffffffffffffffffff1673ffffffffffffffffffffffffffffffffffffffff16145b151561054a57600080fd5b60018160030160146101000a81548160ff0219169083600481111561056b57fe5b02179055504281600401819055505050565b6000808281548110151561058d57fe5b90600052602060002090600502019050600060048111156105aa57fe5b8160030160149054906101000a900460ff1660048111156105c757fe5b14801561062357503373ffffffffffffffffffffffffffffffffffffffff168160020160009054906101000a900473ffffffffffffffffffffffffffffffffffffffff1673ffffffffffffffffffffffffffffffffffffffff16145b151561062e57600080fd5b3373ffffffffffffffffffffffffffffffffffffffff166108fc82600101549081150290604051600060405180830381858888f19350505050151561067257600080fd5b60048160030160146101000a81548160ff0219169083600481111561069357fe5b02179055505050565b6000818154811015156106ab57fe5b90600052602060002090600502016000915090508060000154908060010154908060020160009054906101000a900473ffffffffffffffffffffffffffffffffffffffff16908060030160009054906101000a900473ffffffffffffffffffffffffffffffffffffffff16908060030160149054906101000a900460ff16908060040154905086565b60008080549050905090565b60008080548060010182816107559190610a98565b9160005260206000209060050201600060c06040519081016040528060008054905081526020013481526020013373ffffffffffffffffffffffffffffffffffffffff168152602001600073ffffffffffffffffffffffffffffffffffffffff168152602001600060048111156107c857fe5b815260200160008152509091909150600082015181600001556020820151816001015560408201518160020160006101000a81548173ffffffffffffffffffffffffffffffffffffffff021916908373ffffffffffffffffffffffffffffffffffffffff16021790555060608201518160030160006101000a81548173ffffffffffffffffffffffffffffffffffffffff021916908373ffffffffffffffffffffffffffffffffffffffff16021790555060808201518160030160146101000a81548160ff0219169083600481111561089d57fe5b021790555060a082015181600401555050506001905090565b600080828154811015156108c657fe5b90600052602060002090600502019050600160048111156108e357fe5b8160030160149054906101000a900460ff16600481111561090057fe5b14801561095c57503373ffffffffffffffffffffffffffffffffffffffff168160030160009054906101000a900473ffffffffffffffffffffffffffffffffffffffff1673ffffffffffffffffffffffffffffffffffffffff16145b151561096757600080fd5b60008160030160006101000a81548173ffffffffffffffffffffffffffffffffffffffff021916908373ffffffffffffffffffffffffffffffffffffffff16021790555060008160030160146101000a81548160ff021916908360048111156109cc57fe5b02179055505050565b600080828154811015156109e557fe5b9060005260206000209060050201905060006004811115610a0257fe5b8160030160149054906101000a900460ff166004811115610a1f57fe5b141515610a2b57600080fd5b338160030160006101000a81548173ffffffffffffffffffffffffffffffffffffffff021916908373ffffffffffffffffffffffffffffffffffffffff16021790555060018160030160146101000a81548160ff02191690836004811115610a8f57fe5b02179055505050565b815481835581811511610ac557600502816005028360005260206000209182019101610ac49190610aca565b5b505050565b610b6091905b80821115610b5c5760008082016000905560018201600090556002820160006101000a81549073ffffffffffffffffffffffffffffffffffffffff02191690556003820160006101000a81549073ffffffffffffffffffffffffffffffffffffffff02191690556003820160146101000a81549060ff0219169055600482016000905550600501610ad0565b5090565b905600a165627a7a72305820bb88df06e2b7ec5a1d8a196e39f383fe98d1a17fa3eabe1cd02b9f790d47c18f0029",
  "source": "pragma solidity ^0.4.0;\n\n\ncontract SmartTaskDispatcher {\n    enum TaskStatus {New, Assigned, Resolved, Accepted, Canceled}\n\n    struct SmartTask {\n        uint id;\n        uint bounty;\n        address owner;\n        address assignee;\n        TaskStatus status;\n        uint rejected_on;\n    }\n\n    SmartTask[] public tasks;\n\n    function SmartTaskDispatcher() {\n    }\n\n    function getTasksCount() external view returns (uint) {\n        return tasks.length;\n    }\n\n    function createTask() external payable returns (bool) {\n        /*\n            Create a new task and hold its ether bounty\n            msg.sender is task_owner\n            msg.value is task bounty\n        */\n\n        tasks.push(SmartTask({\n            id: tasks.length,\n            bounty: msg.value,\n            owner: msg.sender,\n            assignee: 0,\n            status: TaskStatus.New,\n            rejected_on: 0\n        }));\n\n        return true;\n    }\n\n    function cancelTask(uint task_id) external {\n        /*\n            Only available to call over the task with status New\n            returns the held ether to the owner\n            marks the task as Canceled\n        */\n        var task = tasks[task_id];\n\n        require (task.status == TaskStatus.New && task.owner == msg.sender);\n\n        msg.sender.transfer(task.bounty);\n        task.status = TaskStatus.Canceled;\n    }\n\n    function assignTask(uint task_id) external {\n        /*\n            Assign task to the message sender\n        */\n        var task = tasks[task_id];\n\n        require (task.status == TaskStatus.New);\n\n        task.assignee = msg.sender;\n        task.status = TaskStatus.Assigned;\n    }\n\n    function rollbackAssignment(uint task_id) external {\n        /*\n            Reset task assignee, make it available to cancel\n        */\n        var task = tasks[task_id];\n\n        require (task.status == TaskStatus.Assigned && task.assignee == msg.sender);\n\n        task.assignee = 0;\n        task.status = TaskStatus.New;\n    }\n\n    function resolveTask(uint task_id) external {\n        /*\n            Mark task as resolved, make in available to be accepted by owner\n        */\n        var task = tasks[task_id];\n\n        require (task.status == TaskStatus.Assigned && task.assignee == msg.sender);\n\n        task.status = TaskStatus.Resolved;\n    }\n\n    function rejectTask(uint task_id) external {\n        /*\n            Rollback status task to Assigned, meaning that owner is not satisfied by the task result\n        */\n        var task = tasks[task_id];\n\n        require (task.status == TaskStatus.Resolved && task.owner == msg.sender);\n\n        task.status = TaskStatus.Assigned;\n        task.rejected_on = now;\n    }\n\n    function acceptTask(uint task_id) external {\n        /*\n            Accept task and transfer the bounty amount to its assignee\n        */\n        var task = tasks[task_id];\n\n        require (task.status == TaskStatus.Resolved && task.owner == msg.sender);\n\n        task.status = TaskStatus.Accepted;\n        task.assignee.transfer(task.bounty);\n    }\n}\n",
  "sourcePath": "/Users/bigbobah/my/dev/hack/contracts/SmartTaskDispatcher.sol",
  "compiler": {
    "name": "solc",
    "version": "0.4.18+commit.9cf6e910.Emscripten.clang"
  },
  "schemaVersion": "1.0.1",
  "updatedAt": "2018-01-23T23:39:40.178Z"
}